S01B000068656C6C6F5F776F726C645F66726565646F6D2E737265632D
S1130000F82F002011040000451C0000451C0000CE
S1130010451C0000451C0000451C0000451C000058
S1130020451C0000451C0000451C0000451C000048
S1130030451C0000451C0000451C0000451C000038
S1130040451C00002F140000451C0000451C000046
S1130050451C0000451C0000451C0000451C000018
S1130060451C0000451C0000451C0000451C000008
S1130070451C0000451C0000451C0000451C0000F8
S1130080451C0000451C0000451C0000451C0000E8
S1130400FFFFFFFFFFFFFFFFFFFFFFFFFEFFFFFFF9
S113041000200021002200230024002500260027BC
S113042062B600F057FCFEE710B50C001168012914
S113043002D0022904D009E0C0B25168884705E01F
S1130440916808709068401C9060FFE72068401C29
S1130450206010BDF0B51C000026050000202870A7
S11304606D1C002A1CD00F68002F09D13020287081
S1130470761C3000F0BD30320F002A706D1C761CE3
S1130480002FF6D03800210000F040FA01000800E7
S113049060433A1A002AEED5D04302003132EBE72A
S11304A00F68002F08D130202870761CE1E737311F
S11304B0070029706D1C761C002FDAD0380021004B
S11304C000F027FA01006143791A0A29EFD230318A
S11304D0EEE7F8B50E0015001F00040005E03A0031
S11304E029003020FFF7A0FF641CB442F7DBF1BD04
S11304F0F8B50E0015001F00040005E03A002900BD
S11305002020FFF791FF641CB442F7DBF1BDF1B585
S113051090B01400002000900D0004E0109A694689
S1130520FFF782FF6D1C2878002800D1C3E125283D
S113053011D00A2804D0109A6946FFF775FF09E024
S1130540109A69460D20FFF76FFF109A69460A203A
S1130550FFF76AFFE6E70027002102E038000127E1
S1130560074300291FD16D1C287820280CD023288C
S113057012D02B2804D02D28F0D0302808D00FE03A
S1130580380002270743ECE7380004270743E8E76D
S1130590380008270743E4E7380010270743E0E75B
S11305A06D1E0121DDE700200290002105E0029A82
S11305B00A235A43101830380290002908D16D1CC0
S11305C028780200303A092AF1D96D1E0121F4E796
S11305D06D1C28782E280BD10021FFE7002908D1B3
S11305E06D1C287830380928F8D96D1E0121F5E7EB
S11305F06D1E6D1C28784C2806D0682802D06C2803
S113060001D002E002E001E000E06D1E6D1C2878DC
S11306100100582971D0622900D1CAE0632900D1B0
S113062013E1642913D0692911D06E2900D13DE169
S11306306F2900D1B2E0702900D1C5E0732900D13F
S11306400BE1752900D1CAE0782956D066E7206805
S1130650241D06900A23012206A907A8FFF7FAFE23
S1130660060007A8801905900698002803D52D20B8
S11306700190761C0DE0B80703D52B200190761C61
S113068007E0780703D520200190761C01E00020C4
S1130690019000200490380711D50198002804D057
S11306A0109A69460198FFF7BFFE01200490109B41
S11306B06A4602993000FFF70CFF029E11E0F8072A
S11306C00FD4109B6A4602993000FFF711FF01987E
S11306D0002804D0109A69460198FFF7A5FE01206E
S11306E004900498002807D10198002804D0109A97
S11306F069460198FFF798FE9AE02068241D03904C
S11307001023002203A907A8FFF7A4FE060007A8E8
S11307108019059000200490380715D5F8060BD5EC
S1130720109A69463020FFF77FFE109A69467820B8
S1130730FFF77AFE01200490109B6A46029930006C
S1130740FFF7C7FE029E18E0F80716D4F80600D596
S1130750B61C109B6A4602993000FFF7C9FEF806E2
S11307600BD5109A69463020FFF75EFE109A694651
S11307707820FFF759FE01200490F8060DD504985F
S113078000280AD1109A69463020FFF74DFE109ACE
S113079069467820FFF748FEB61C49E02068241D0E
S11307A003900823002203A907A8FFF753FE0600BD
S11307B01FE02068241D03900223002203A907A838
S11307C0FFF748FE060014E02068241D0390102360
S11307D0002203A907A8FFF73DFE060009E02068F0
S11307E0241D03900A23002203A907A8FFF732FE61
S11307F0060007A880190590380707D5109B6A469C
S113080002993000FFF765FE029E11E0F8070FD44D
S1130810109B6A4602993000FFF76AFE08E0109ABE
S1130820694605980078FFF7FFFD0598401E05907E
S1130830059800780028F2D1F80705D5109B6A4680
S113084002993000FFF754FE6CE62068241DC0B204
S1130850109A6946FFF7E8FD64E62068241D0190BC
S11308600198002821D0019800F0AAF80600F807A2
S11308700FD4109B6A4602993000FFF739FE08E056
S1130880109A694601980078FFF7CEFD0198401C44
S11308900190019800780028F2D1F80705D5109B43
S11308A06A4602993000FFF723FE3BE62068241DC8
S11308B00099016036E6009811B0F0BD0EB400B5A1
S11308C084B0012100910549019105AA01006846FF
S11308D0FFF71DFE049908B008470000011D000041
S11308E0F446002804D4494200F013F8404260471B
S11308F04042002905D45FD000F00BF84042494241
S11309006047494200F005F84942604703460B43FB
S1130910E6D40022030A8B420BD203098B4219D27C
S113092043088B422ED2411A00D20146524110464E
S11309307047FF2209023FD012068B4205D31212E0
S113094009028B4201D31212090203098B4219D303
S113095000E0090AC3098B4201D3CB01C01A5241FA
S113096083098B4201D38B01C01A524143098B4244
S113097001D34B01C01A524103098B4201D30B012D
S1130980C01A5241C3088B4201D3CB00C01A524152
S113099083088B4201D38B00C01A524143088B4217
S11309A001D34B00C01A5241884200D3401A52412D
S11309B0CFD201461046704708B500F011F808BDC3
S11309C000B501000020002902D1002006E0401CEF
S11309D00A001100491C1278002AF8D100BD000059
S11309E070470000F4B504000F001D00A64800780D
S11309F0C0B280088007800F002807D1A248007881
S1130A00C00603D5A0480078800601D5012039E14D
S1130A109E48844201DB212034E1684600780028A6
S1130A2006D09B48201A9B49884201D3222029E101
S1130A30FFB2002F00D001276DB22800401E1928F4
S1130A4001D341201EE1694618200E5676B23000CB
S1130A5018381B2801D3422014E120006DB229006C
S1130A60FFF754FF8C49401A8C49884201D3432034
S1130A7008E120006DB22900FFF748FF76B2704309
S1130A808749401A8749884201D34520FAE08648BD
S1130A9001780800C3210140844884420ADAFFB285
S1130AA0F80010220243684600788000104308438F
S1130AB0010009E0FFB2F8002022024368460078F2
S1130AC0800010430843010077480170784884424D
S1130AD001DA002014E07748844201DA01200FE0B3
S1130AE07548844201DA02200AE07448844201DA3B
S1130AF0032005E07248844201DA042000E0052066
S1130B00704909788907890F0B00C0003822024018
S1130B108021114319436B4801706846007800280E
S1130B2010D0002000E0401C00B26749884203DA7C
S1130B30554909788907F6D553480078800701D4C8
S1130B4023209FE0002000E0401C00B2FA21C900ED
S1130B50884203DA4C490978C906F5D44A48007832
S1130B60C00601D511208DE0002000E0401C00B239
S1130B70FA21C900884207DA43490978C9B28908C9
S1130B808907890F0229F1D13F480078C0B2800853
S1130B908007800F022801D01A2073E04B480078A8
S1130BA02021014349480170494801780800E021A7
S1130BB001400A00681EC106C90E11434448017071
S1130BC0424801780800E02101400A00183EF0067E
S1130BD0C00E4021014311433C480170002000E055
S1130BE0401C00B2FA21C900884203DA2649097878
S1130BF08906F5D524480078800601D4162041E002
S1130C00002000E0401C00B2FA210901884203DA06
S1130C101D4909784906F5D51B480078400601D4DA
S1130C2044202FE02A480078C106C90E491C2748F1
S1130C300078C506ED0E1835224800788006800E2F
S1130C40204A1070002000E0401C00B2FA22D200BA
S1130C50904207DA0C4A1278D2B292089207920FA5
S1130C60032AF1D108480078C0B280088007800FB9
S1130C70032801D01B2005E02000C9B2FFF746FE7F
S1130C80EDB26843F2BD00000640064081F0FA026E
S1130C90C0C62D004181BA0180841E0081841E00DB
S1130CA0006CDC02017519030140064001127A0050
S1130CB0D1121300A1252600414B4C0081969800C7
S1130CC0012D310100400640204E00000540064041
S1130CD00440064080B500207F49086000F04EF9CA
S1130CE000F09EF97D48FFF7E9FD00F027FA00F0D7
S1130CF003F800F093FBFEE780B579480068000F25
S1130D004007400F002806D002280CD007D304283F
S1130D1011D00CD313E07348FFF7D0FD12E07248F2
S1130D20FFF7CCFD0EE07148FFF7C8FD0AE07048FC
S1130D30FFF7C4FD06E06F48FFF7C0FD02E06E4810
S1130D40FFF7BCFD66480068000E4007400F04280A
S1130D5004D00FD3062809D004D30BE067A0FFF713
S1130D60ADFD0AE066A0FFF7A9FD06E065A0FFF768
S1130D70A5FD02E06448FFF7A1FD5948006800079B
S1130D80000F00280CD001280ED0022810D004280F
S1130D9012D0052814D0062816D0082818D01BE035
S1130DA05A48FFF78BFD1AE05948FFF787FD16E014
S1130DB05848FFF783FD12E05748FFF77FFD0EE028
S1130DC05648FFF77BFD0AE05548FFF777FD06E03C
S1130DD05448FFF773FD02E05348FFF76FFD4048A6
S1130DE00068000D4007400F012803D14F48FFF76A
S1130DF065FD02E04E48FFF761FD39480068000CCC
S1130E004007400F00280BD0022811D00CD304282F
S1130E1016D011D306281BD016D307281CD01FE0E8
S1130E204448FFF74BFD1EE04348FFF747FD1AE037
S1130E304248FFF743FD16E04148FFF73FFD12E04B
S1130E404048FFF73BFD0EE03F48FFF737FD0AE05F
S1130E503E48FFF733FD06E03D48FFF72FFD02E073
S1130E603C48FFF72BFD3C480068000E0007000FCC
S1130E7000280CD001280ED0032810D0052812D049
S1130E80072814D0092816D00F2818D01BE033489F
S1130E90FFF714FD1AE03248FFF710FD16E0314861
S1130EA0FFF70CFD12E03048FFF708FD0EE02F4875
S1130EB0FFF704FD0AE02E48FFF700FD06E02B488B
S1130EC0FFF7FCFC02E02B48FFF7F8FC0F2189B286
S1130ED02948FFF7F3FC01BD00810440781D0000A0
S1130EE024800440801D0000881D0000901D000027
S1130EF0981D0000A01D0000101A0000340A0D0007
S1130F00350A0D00360A0D003C190000A81D00002A
S1130F10B01D0000B81D0000C01D0000C81D000069
S1130F20D01D0000601D000068190000381A000080
S1130F3094190000E41B00009C1C0000B01C00007D
S1130F40C41C0000D81C0000FC1B0000141C000082
S1130F502C1C0000501B00004C800440F8160000BC
S1130F603817000078170000B4170000F0170000CD
S1130F702C180000DC1A0000EC1C000080B51E4890
S1130F801E4988420ED0002008E01C490422424336
S1130F908958194A04234343D150401C82214900F3
S1130FA08842F2D3144800F0CFFA1549154A16487E
S1130FB0801A03E013780B70521C491C0300581E5E
S1130FC0002BF7D111491248401A02E000220A709E
S1130FD0491C0200501E002AF8D10E490E4A0F483F
S1130FE0801A03E013780B70521C491C0300581E2E
S1130FF0002BF7D101BD00BF00F0FF1F000000006F
S113100010F4FF1F5C1C0000741C000028F4FF1F78
S113101080F5FF1F80F5FF1FD81D0000D81D0000BC
S113102000B583B037480068F82189010143354889
S1131030016035480078000705D533480078082159
S1131040014331480170802040023049086001208A
S11310500190182000900423012200212C48FFF75E
S1131060C1FC2C4908602B480068FF2800DCFEE71F
S11310702948006880214902014327480160254826
S113108000680221FFF742FCFA218900FFF73EFCC9
S11310902249086020480068214901408020C0049A
S11310A008431D4908601B480068FA218900FFF7BE
S11310B02DFC1C4908601B48006814490968090F85
S11310C0491CFFF726FC18490860174800680F49B7
S11310D00968090C4907490F491CFFF71AFC134911
S11310E00860802080001249086080208000114937
S11310F008609622D201094801680F4800F04EFAB0
S113110007BD00003880044002D0074044800440FA
S113111000127A0068F5FF1F0480044078F5FF1F71
S1131120FFFFFFF36CF5FF1F70F5FF1F74F5FF1F42
S1131130049004400890044000A0064080B557483D
S11311400078800602D55648FFF7B8FB534800786C
S1131150000702D55348FFF7B1FB50480078400719
S113116002D55148FFF7AAFB4C480078800702D506
S11311704E48FFF7A3FB4E480078000602D54D48C1
S1131180FFF79CFB4A480078400602D54A48FFF71F
S113119095FB47480078800602D54848FFF78EFB48
S11311A043480078400702D54548FFF787FB40488D
S11311B00078000702D54348FFF780FB3C480078DD
S11311C0800702D54048FFF779FB39480078C0070B
S11311D04DD53E48FFF772FB3D480078C0B240074A
S11311E0400F032802D13B48FFF768FB38480078DA
S11311F0C0B24007400F042806D1374800784007A2
S113120002D13648FFF75AFB31480078C0B2400794
S1131210400F042809D130480078C0B24007400F7D
S1131220012802D12E48FFF749FB29480078C0B2B3
S11312304007400F042809D127480078C0B240076E
S1131240400F022802D12748FFF738FB20480078D6
S1131250C0B24007400F042809D11F480078C0B22B
S11312604007400F032802D11F48FFF727FB10480F
S11312700078C0B2002810D108480078C0B2002815
S11312800BD10B480178C9B21848FFF717FB034884
S11312900178C9B21648FFF711FB01BD01F0074000
S11312A0881A0000141D0000741C0000FC1A0000C1
S11312B000F00740881C0000B41B0000CC1B000099
S11312C0BC1A0000181B0000341B0000DC180000CE
S11312D001E00740241D000002E00740301D00002B
S11312E03C1D0000481D0000541D0000C0190000F2
S11312F0E81900007248006880210905014370481C
S113130001602C206F49086000206F4908606F4815
S11313106F4908606F487049086004206F4908608D
S113132000206F490860704765480068802189047F
S11313300143634801606B4800688021490401430C
S113134068480160FF20001D674908600120674963
S113135008601E206649086063480068082101434C
S113136061480160704780B5554800680221014317
S1131370534801605F4800688021490001435D488B
S11313800160012000F0E3F85B485C490860A0209C
S113139040005B4908605B4800685B49014059486C
S11313A0016058480068594901435648016058484B
S11313B058490860372058490870574800788021F8
S11313C0014355480170554855490860A0205549C6
S11313D00860554800684C49014053480160514831
S11313E00068C00106D54F480068802149040143C4
S11313F04C4801604C4800684C4901434A4801602C
S11314004B484C49086028204B4908704A480078EA
S1131410802101434848017001BD000080B5FFF7F9
S113142069FFFFF7A0FFFFF77FFF62B6FEE700B595
S11314302D480068182188432B4908603A48006801
S11314403E4901403848016036480068C00128D54B
S11314502B48006880214904014329480160314830
S113146000688021490401432E4801603448007813
S1131470401C3349087032480078022802DB0020FF
S11314802F4908702F482E490978042251434058A7
S113149028490860A020400019490860A02021497B
S11314A0086011480068082101430F4801601E4884
S11314B000688021C90501431B48016000BD00008C
S11314C03C80044008B003400CB0034034120000D8
S11314D018B00340785600001CB0034020B003400D
S11314E024B003400480044000900340049003406F
S11314F0089003404080044010F4FF1F0081004026
S1131500088100400C810040FFFFC9FF00104060CB
S113151000B00340048100400010024010B00340BA
S113152010810040188100401C81004000002CE024
S113153028F4FF1F1481004001100240FFFFFFBF89
S11315407CF5FF1F20F4FF1F10490860704770B539
S11315500400212C03DB0E48FFF7B0F915E00D4819
S11315600568012620002021FFF7D0F98E402E4384
S11315700848066008480568012620002021FFF776
S1131580C5F98E402E430448066070BD08ED00E0A6
S1131590A418000080E200E000E100E0F8B50020BB
S11315A00026002700230020474800688023DB0032
S11315B003434548036045480078F3230340434808
S11315C0037008002038424B984208D30021414858
S11315D003681800404B03403E480360FEE71400D4
S11315E0FA20800041430091042500982100EDB2C7
S11315F06943FFF78EF901000098EDB26943FFF7E4
S113160088F9844201D2061B00E0261AEDB22F00AD
S1131610052506E0201A864202D30600EDB22F000B
S11316206D1CEDB2212D0FDA00982100EDB2694353
S1131630FFF76FF901000098EDB26943FFF769F90C
S11316408442E7D2001BE6E720006421FFF761F93A
S113165003214843864235D23800001F052805D2AD
S11316601E480078022101431C4801701C4803787D
S1131670DBB21F2083431900781EC0B2C306DB0E01
S11316800B43180016490870DB06DB0E5B1C009840
S11316905C432100FFF73DF9010012480378DBB2F7
S11316A01F2083430800000AC006C00E18430D4AD9
S11316B010700D480170054800780C21014303485F
S11316C00170F1BDFEE700003480044003A0064031
S11316D031C3000004800440FFFFFFF30BA0064069
S11316E00AA0064000A0064001A0064000B5027909
S11316F01206FCD5C17100BD466C61736820736924
S11317007A653A202038204B422070726F677261EC
S11317106D20666C6173682C20302E3235204B426C
S11317202070726F74656374696F6E207265676987
S11317306F6E0A0D00000000466C617368207369C7
S11317407A653A20203136204B422070726F6772DE
S1131750616D20666C6173682C20302E35204B42FD
S11317602070726F74656374696F6E207265676947
S11317706F6E0A0D00000000466C61736820736987
S11317807A653A20203332204B422070726F6772A0
S1131790616D20666C6173682C2031204B4220708F
S11317A0726F74656374696F6E20726567696F6EBA
S11317B00A0D0000466C6173682073697A653A20EB
S11317C0203634204B422070726F6772616D206640
S11317D06C6173682C2032204B422070726F7465E8
S11317E06374696F6E20726567696F6E0A0D00001D
S11317F0466C6173682073697A653A202031323807
S1131800204B422070726F6772616D20666C617349
S1131810682C2034204B422070726F7465637469A5
S11318206F6E20726567696F6E0A0D00466C617396
S1131830682073697A653A2020323536204B42207D
S113184070726F6772616D20666C6173682C2034EE
S1131850204B422070726F74656374696F6E2072DE
S11318606567696F6E0A0D0070B40121002313E0EF
S11318700468001D0C4202D04D466D1E641923609D
S1131880241D121F042AFAD22500960701D52380AD
S1131890AD1C0A4000D02B700268001D002AE7D15D
S11318A070BC70470A4552522120496E76616C69BA
S11318B064204952512076616C75652070617373A0
S11318C0656420746F20656E61626C652069727155
S11318D02066756E6374696F6E210A000A0D5B6F72
S11318E075745352535D57616B65757020626974EA
S11318F0207365742066726F6D206C6F7720706F33
S1131900776572206D6F6465200000000A2A2A2A18
S11319102A64656661756C745F69737220656E74A0
S113192065726564206F6E20766563746F7220251E
S1131930642A2A2A2A2A0D0A0A0000000A0D556E72
S11319407265636F676E697A6564204B696E65744E
S11319506973207375622D66616D696C79206465A5
S1131960766963652E0A0D000A0D556E7265636F04
S1131970676E697A6564204B696E6574697320705B
S113198061636B61676520636F64652E202020208E
S1131990202000000A0D556E7265636F676E697AC8
S11319A06564204B696E657469732066616D696C4A
S11319B079206174747269627574652E0A0D000071
S11319C05B6F75745352535D52434D5F53525330A2
S11319D0206973205A45524F2020203D2025233072
S11319E03258200D0A0D00005B6F75745352535D1D
S11319F052434D5F53525331206973205A45524F1D
S1131A002020203D202523303258200D0A0D0000CF
S1131A100A0D556E7265636F676E697A6564204B53
S1131A20696E657469732066616D696C792064659B
S1131A30766963652E0A0D000A0D4C6F7720506F8E
S1131A40776572204C696E65207769746820436FEE
S1131A5072746578204D302B0A0D0A0D00000000C9
S1131A6010B5074979441831064C7C44163404E017
S1131A70081D0A68891888470100A142F8D110BDE1
S1131A802C000000380000000A0D53746F70204DC4
S1131A906F64652041636B6E6F776C656467652066
S1131AA04572726F7220526573657400BDFDFFFF4D
S1131AB05801000028F4FF1F000000000A0D4C6FBD
S1131AC07373206F662045787465726E616C204371
S1131AD06C6F636B2052657365740000455252212C
S1131AE02120556E646566696E656420666C617359
S1131AF0682073697A650A0D000000000A0D436FBF
S1131B007265204C6F636B7570204576656E74202A
S1131B1052657365740000000A0D4C6F7373206F77
S1131B2066204C6F636B20696E20504C4C205265CC
S1131B30736574000A0D4C6F772D766F6C74616752
S1131B406520446574656374205265736574000090
S1131B500A0D556E7265636F676E697A656420530A
S1131B6052414D2053697A652E0A0D0000F00BF89E
S1131B70002801D0FFF774FF0020C046C046FFF7DD
S1131B804DFC00F002F80120704780B500F002F827
S1131B9001BD00000746384600F002F8FBE70000EC
S1131BA080B5C046C046024A11001820ABBEFBE710
S1131BB0260002000A0D45787465726E616C20502F
S1131BC0696E205265736574000000000A0D576148
S1131BD0746368646F6728434F50292052657365A6
S1131BE0740000005352414D202073697A653A20F5
S1131BF0302E35204B420A0D000000005352414D57
S1131C00202073697A653A20203136204B420A0D30
S1131C10000000005352414D202073697A653A2038
S1131C20203332204B420A0D000000005352414D34
S1131C30202073697A653A20203634204B420A0DFD
S1131C400000000080B5034801680348FEF736FE33
S1131C5001BD000004ED00E00C19000000000000CC
S1131C601A0000001D0000001E00000028F4FF1FE1
S1131C70C8F4FF1F0A0D536F6674776172652052B2
S1131C8065736574000000000A0D506F7765722D4E
S1131C906F6E205265736574000000005352414D0D
S1131CA0202073697A653A202031204B420A0D00C6
S1131CB05352414D202073697A653A202032204BDB
S1131CC0420A0D005352414D202073697A653A202F
S1131CD02034204B420A0D005352414D2020736999
S1131CE07A653A202038204B420A0D0053696C690A
S1131CF0636F6E207265762025640A0D0000000073
S1131D0080B50100C9B20248FFF7F0FC01BD000034
S1131D1000A006400A0D4D444D2D415020526573DC
S1131D20657400004C4C53206578697420000000F1
S1131D30564C4C533020657869742000564C4C53F3
S1131D403120657869742000564C4C5332206578F4
S1131D5069740000564C4C53332065786974200034
S1131D6031303070696E0A0D00000000C046C04674
S1131D70C046C046FFF7FAFE0A0D0A0D0000000037
S1131D800A0D4B4C300000000A0D4B4C3100000092
S1131D900A0D4B4C320000000A0D4B4C330000007E
S1131DA00A0D4B4C34000000313670696E0A0D0088
S1131DB0323470696E0A0D00333270696E0A0D0098
S1131DC0343870696E0A0D00363470696E0A0D007D
S10B1DD0383070696E0A0D0041
S9031D6D72
